{
  "_format": "hh-sol-artifact-1",
  "contractName": "Flaq",
  "sourceName": "contracts/falq.sol",
  "abi": [
    {
      "inputs": [],
      "stateMutability": "nonpayable",
      "type": "constructor"
    },
    {
      "anonymous": false,
      "inputs": [
        {
          "indexed": true,
          "internalType": "address",
          "name": "owner",
          "type": "address"
        },
        {
          "indexed": true,
          "internalType": "address",
          "name": "spender",
          "type": "address"
        },
        {
          "indexed": false,
          "internalType": "uint256",
          "name": "value",
          "type": "uint256"
        }
      ],
      "name": "Approval",
      "type": "event"
    },
    {
      "anonymous": false,
      "inputs": [
        {
          "indexed": true,
          "internalType": "address",
          "name": "from",
          "type": "address"
        },
        {
          "indexed": true,
          "internalType": "address",
          "name": "to",
          "type": "address"
        },
        {
          "indexed": false,
          "internalType": "uint256",
          "name": "value",
          "type": "uint256"
        }
      ],
      "name": "Transfer",
      "type": "event"
    },
    {
      "inputs": [
        {
          "internalType": "address",
          "name": "owner",
          "type": "address"
        },
        {
          "internalType": "address",
          "name": "spender",
          "type": "address"
        }
      ],
      "name": "allowance",
      "outputs": [
        {
          "internalType": "uint256",
          "name": "",
          "type": "uint256"
        }
      ],
      "stateMutability": "view",
      "type": "function"
    },
    {
      "inputs": [
        {
          "internalType": "address",
          "name": "spender",
          "type": "address"
        },
        {
          "internalType": "uint256",
          "name": "amount",
          "type": "uint256"
        }
      ],
      "name": "approve",
      "outputs": [
        {
          "internalType": "bool",
          "name": "",
          "type": "bool"
        }
      ],
      "stateMutability": "nonpayable",
      "type": "function"
    },
    {
      "inputs": [
        {
          "internalType": "address",
          "name": "account",
          "type": "address"
        }
      ],
      "name": "balanceOf",
      "outputs": [
        {
          "internalType": "uint256",
          "name": "",
          "type": "uint256"
        }
      ],
      "stateMutability": "view",
      "type": "function"
    },
    {
      "inputs": [
        {
          "internalType": "uint256",
          "name": "amount",
          "type": "uint256"
        }
      ],
      "name": "burn",
      "outputs": [],
      "stateMutability": "nonpayable",
      "type": "function"
    },
    {
      "inputs": [
        {
          "internalType": "address",
          "name": "account",
          "type": "address"
        },
        {
          "internalType": "uint256",
          "name": "amount",
          "type": "uint256"
        }
      ],
      "name": "burnFrom",
      "outputs": [],
      "stateMutability": "nonpayable",
      "type": "function"
    },
    {
      "inputs": [],
      "name": "decimals",
      "outputs": [
        {
          "internalType": "uint8",
          "name": "",
          "type": "uint8"
        }
      ],
      "stateMutability": "view",
      "type": "function"
    },
    {
      "inputs": [
        {
          "internalType": "address",
          "name": "spender",
          "type": "address"
        },
        {
          "internalType": "uint256",
          "name": "subtractedValue",
          "type": "uint256"
        }
      ],
      "name": "decreaseAllowance",
      "outputs": [
        {
          "internalType": "bool",
          "name": "",
          "type": "bool"
        }
      ],
      "stateMutability": "nonpayable",
      "type": "function"
    },
    {
      "inputs": [],
      "name": "devPoolAddr",
      "outputs": [
        {
          "internalType": "address",
          "name": "",
          "type": "address"
        }
      ],
      "stateMutability": "view",
      "type": "function"
    },
    {
      "inputs": [
        {
          "internalType": "address",
          "name": "spender",
          "type": "address"
        },
        {
          "internalType": "uint256",
          "name": "addedValue",
          "type": "uint256"
        }
      ],
      "name": "increaseAllowance",
      "outputs": [
        {
          "internalType": "bool",
          "name": "",
          "type": "bool"
        }
      ],
      "stateMutability": "nonpayable",
      "type": "function"
    },
    {
      "inputs": [],
      "name": "markettingAddr",
      "outputs": [
        {
          "internalType": "address",
          "name": "",
          "type": "address"
        }
      ],
      "stateMutability": "view",
      "type": "function"
    },
    {
      "inputs": [],
      "name": "name",
      "outputs": [
        {
          "internalType": "string",
          "name": "",
          "type": "string"
        }
      ],
      "stateMutability": "view",
      "type": "function"
    },
    {
      "inputs": [],
      "name": "rewardPoolAddr",
      "outputs": [
        {
          "internalType": "address",
          "name": "",
          "type": "address"
        }
      ],
      "stateMutability": "view",
      "type": "function"
    },
    {
      "inputs": [],
      "name": "symbol",
      "outputs": [
        {
          "internalType": "string",
          "name": "",
          "type": "string"
        }
      ],
      "stateMutability": "view",
      "type": "function"
    },
    {
      "inputs": [],
      "name": "totalSupply",
      "outputs": [
        {
          "internalType": "uint256",
          "name": "",
          "type": "uint256"
        }
      ],
      "stateMutability": "view",
      "type": "function"
    },
    {
      "inputs": [
        {
          "internalType": "address",
          "name": "to",
          "type": "address"
        },
        {
          "internalType": "uint256",
          "name": "amount",
          "type": "uint256"
        }
      ],
      "name": "transfer",
      "outputs": [
        {
          "internalType": "bool",
          "name": "",
          "type": "bool"
        }
      ],
      "stateMutability": "nonpayable",
      "type": "function"
    },
    {
      "inputs": [
        {
          "internalType": "address",
          "name": "from",
          "type": "address"
        },
        {
          "internalType": "address",
          "name": "to",
          "type": "address"
        },
        {
          "internalType": "uint256",
          "name": "amount",
          "type": "uint256"
        }
      ],
      "name": "transferFrom",
      "outputs": [
        {
          "internalType": "bool",
          "name": "",
          "type": "bool"
        }
      ],
      "stateMutability": "nonpayable",
      "type": "function"
    }
  ],
  "bytecode": "0x608060405273612fad2a5cb7b66cc1d10cd7f30dc2c63f3d627c600560006101000a81548173ffffffffffffffffffffffffffffffffffffffff021916908373ffffffffffffffffffffffffffffffffffffffff16021790555073849efbf8b13668d35e8b444a8ef73accc8fb762a600660006101000a81548173ffffffffffffffffffffffffffffffffffffffff021916908373ffffffffffffffffffffffffffffffffffffffff160217905550739f5aa68f59a5a289b7da73714b129dce81a7a9a7600760006101000a81548173ffffffffffffffffffffffffffffffffffffffff021916908373ffffffffffffffffffffffffffffffffffffffff16021790555063e27f66006008556347868c00600955633b9aca00600a556402540be400600b553480156200013157600080fd5b506040518060400160405280600481526020017f466c6171000000000000000000000000000000000000000000000000000000008152506040518060400160405280600481526020017f464c4151000000000000000000000000000000000000000000000000000000008152508160039080519060200190620001b6929190620004ef565b508060049080519060200190620001cf929190620004ef565b5050506200023d33620001e76200036360201b60201c565b600a620001f59190620006df565b600a546009546008546200020a919062000627565b62000216919062000627565b600b546200022591906200087d565b6200023191906200081c565b6200036c60201b60201c565b6200029d600560009054906101000a900473ffffffffffffffffffffffffffffffffffffffff16620002746200036360201b60201c565b600a620002829190620006df565b6008546200029191906200081c565b6200036c60201b60201c565b620002fd600660009054906101000a900473ffffffffffffffffffffffffffffffffffffffff16620002d46200036360201b60201c565b600a620002e29190620006df565b600954620002f191906200081c565b6200036c60201b60201c565b6200035d600760009054906101000a900473ffffffffffffffffffffffffffffffffffffffff16620003346200036360201b60201c565b600a620003429190620006df565b600a546200035191906200081c565b6200036c60201b60201c565b62000999565b60006012905090565b600073ffffffffffffffffffffffffffffffffffffffff168273ffffffffffffffffffffffffffffffffffffffff161415620003df576040517f08c379a0000000000000000000000000000000000000000000000000000000008152600401620003d690620005d7565b60405180910390fd5b620003f360008383620004e560201b60201c565b806002600082825462000407919062000627565b92505081905550806000808473ffffffffffffffffffffffffffffffffffffffff1673ffffffffffffffffffffffffffffffffffffffff16815260200190815260200160002060008282546200045e919062000627565b925050819055508173ffffffffffffffffffffffffffffffffffffffff16600073ffffffffffffffffffffffffffffffffffffffff167fddf252ad1be2c89b69c2b068fc378daa952ba7f163c4a11628f55a4df523b3ef83604051620004c59190620005f9565b60405180910390a3620004e160008383620004ea60201b60201c565b5050565b505050565b505050565b828054620004fd90620008cf565b90600052602060002090601f0160209004810192826200052157600085556200056d565b82601f106200053c57805160ff19168380011785556200056d565b828001600101855582156200056d579182015b828111156200056c5782518255916020019190600101906200054f565b5b5090506200057c919062000580565b5090565b5b808211156200059b57600081600090555060010162000581565b5090565b6000620005ae601f8362000616565b9150620005bb8262000970565b602082019050919050565b620005d181620008b8565b82525050565b60006020820190508181036000830152620005f2816200059f565b9050919050565b6000602082019050620006106000830184620005c6565b92915050565b600082825260208201905092915050565b60006200063482620008b8565b91506200064183620008b8565b9250827fffffffffffffffffffffffffffffffffffffffffffffffffffffffffffffffff0382111562000679576200067862000905565b5b828201905092915050565b6000808291508390505b6001851115620006d657808604811115620006ae57620006ad62000905565b5b6001851615620006be5780820291505b8081029050620006ce8562000963565b94506200068e565b94509492505050565b6000620006ec82620008b8565b9150620006f983620008c2565b9250620007287fffffffffffffffffffffffffffffffffffffffffffffffffffffffffffffffff848462000730565b905092915050565b60008262000742576001905062000815565b8162000752576000905062000815565b81600181146200076b57600281146200077657620007ac565b600191505062000815565b60ff8411156200078b576200078a62000905565b5b8360020a915084821115620007a557620007a462000905565b5b5062000815565b5060208310610133831016604e8410600b8410161715620007e65782820a905083811115620007e057620007df62000905565b5b62000815565b620007f5848484600162000684565b925090508184048111156200080f576200080e62000905565b5b81810290505b9392505050565b60006200082982620008b8565b91506200083683620008b8565b9250817fffffffffffffffffffffffffffffffffffffffffffffffffffffffffffffffff048311821515161562000872576200087162000905565b5b828202905092915050565b60006200088a82620008b8565b91506200089783620008b8565b925082821015620008ad57620008ac62000905565b5b828203905092915050565b6000819050919050565b600060ff82169050919050565b60006002820490506001821680620008e857607f821691505b60208210811415620008ff57620008fe62000934565b5b50919050565b7f4e487b7100000000000000000000000000000000000000000000000000000000600052601160045260246000fd5b7f4e487b7100000000000000000000000000000000000000000000000000000000600052602260045260246000fd5b60008160011c9050919050565b7f45524332303a206d696e7420746f20746865207a65726f206164647265737300600082015250565b61184a80620009a96000396000f3fe608060405234801561001057600080fd5b50600436106101005760003560e01c806379cc679011610097578063a9059cbb11610066578063a9059cbb146102c3578063c116cf24146102f3578063dd62ed3e14610311578063e9d44c541461034157610100565b806379cc67901461023b57806386073e351461025757806395d89b4114610275578063a457c2d71461029357610100565b8063313ce567116100d3578063313ce567146101a157806339509351146101bf57806342966c68146101ef57806370a082311461020b57610100565b806306fdde0314610105578063095ea7b31461012357806318160ddd1461015357806323b872dd14610171575b600080fd5b61010d61035f565b60405161011a91906111fe565b60405180910390f35b61013d60048036038101906101389190610fb3565b6103f1565b60405161014a91906111e3565b60405180910390f35b61015b610414565b6040516101689190611340565b60405180910390f35b61018b60048036038101906101869190610f64565b61041e565b60405161019891906111e3565b60405180910390f35b6101a961044d565b6040516101b6919061135b565b60405180910390f35b6101d960048036038101906101d49190610fb3565b610456565b6040516101e691906111e3565b60405180910390f35b61020960048036038101906102049190610fef565b610500565b005b61022560048036038101906102209190610eff565b610514565b6040516102329190611340565b60405180910390f35b61025560048036038101906102509190610fb3565b61055c565b005b61025f61057c565b60405161026c91906111c8565b60405180910390f35b61027d6105a2565b60405161028a91906111fe565b60405180910390f35b6102ad60048036038101906102a89190610fb3565b610634565b6040516102ba91906111e3565b60405180910390f35b6102dd60048036038101906102d89190610fb3565b61071e565b6040516102ea91906111e3565b60405180910390f35b6102fb610741565b60405161030891906111c8565b60405180910390f35b61032b60048036038101906103269190610f28565b610767565b6040516103389190611340565b60405180910390f35b6103496107ee565b60405161035691906111c8565b60405180910390f35b60606003805461036e906114a4565b80601f016020809104026020016040519081016040528092919081815260200182805461039a906114a4565b80156103e75780601f106103bc576101008083540402835291602001916103e7565b820191906000526020600020905b8154815290600101906020018083116103ca57829003601f168201915b5050505050905090565b6000806103fc610814565b905061040981858561081c565b600191505092915050565b6000600254905090565b600080610429610814565b90506104368582856109e7565b610441858585610a73565b60019150509392505050565b60006012905090565b600080610461610814565b90506104f5818585600160008673ffffffffffffffffffffffffffffffffffffffff1673ffffffffffffffffffffffffffffffffffffffff16815260200190815260200160002060008973ffffffffffffffffffffffffffffffffffffffff1673ffffffffffffffffffffffffffffffffffffffff168152602001908152602001600020546104f09190611392565b61081c565b600191505092915050565b61051161050b610814565b82610cf4565b50565b60008060008373ffffffffffffffffffffffffffffffffffffffff1673ffffffffffffffffffffffffffffffffffffffff168152602001908152602001600020549050919050565b61056e82610568610814565b836109e7565b6105788282610cf4565b5050565b600760009054906101000a900473ffffffffffffffffffffffffffffffffffffffff1681565b6060600480546105b1906114a4565b80601f01602080910402602001604051908101604052809291908181526020018280546105dd906114a4565b801561062a5780601f106105ff5761010080835404028352916020019161062a565b820191906000526020600020905b81548152906001019060200180831161060d57829003601f168201915b5050505050905090565b60008061063f610814565b90506000600160008373ffffffffffffffffffffffffffffffffffffffff1673ffffffffffffffffffffffffffffffffffffffff16815260200190815260200160002060008673ffffffffffffffffffffffffffffffffffffffff1673ffffffffffffffffffffffffffffffffffffffff16815260200190815260200160002054905083811015610705576040517f08c379a00000000000000000000000000000000000000000000000000000000081526004016106fc90611320565b60405180910390fd5b610712828686840361081c565b60019250505092915050565b600080610729610814565b9050610736818585610a73565b600191505092915050565b600660009054906101000a900473ffffffffffffffffffffffffffffffffffffffff1681565b6000600160008473ffffffffffffffffffffffffffffffffffffffff1673ffffffffffffffffffffffffffffffffffffffff16815260200190815260200160002060008373ffffffffffffffffffffffffffffffffffffffff1673ffffffffffffffffffffffffffffffffffffffff16815260200190815260200160002054905092915050565b600560009054906101000a900473ffffffffffffffffffffffffffffffffffffffff1681565b600033905090565b600073ffffffffffffffffffffffffffffffffffffffff168373ffffffffffffffffffffffffffffffffffffffff16141561088c576040517f08c379a000000000000000000000000000000000000000000000000000000000815260040161088390611300565b60405180910390fd5b600073ffffffffffffffffffffffffffffffffffffffff168273ffffffffffffffffffffffffffffffffffffffff1614156108fc576040517f08c379a00000000000000000000000000000000000000000000000000000000081526004016108f390611260565b60405180910390fd5b80600160008573ffffffffffffffffffffffffffffffffffffffff1673ffffffffffffffffffffffffffffffffffffffff16815260200190815260200160002060008473ffffffffffffffffffffffffffffffffffffffff1673ffffffffffffffffffffffffffffffffffffffff168152602001908152602001600020819055508173ffffffffffffffffffffffffffffffffffffffff168373ffffffffffffffffffffffffffffffffffffffff167f8c5be1e5ebec7d5bd14f71427d1e84f3dd0314c0f7b2291e5b200ac8c7c3b925836040516109da9190611340565b60405180910390a3505050565b60006109f38484610767565b90507fffffffffffffffffffffffffffffffffffffffffffffffffffffffffffffffff8114610a6d5781811015610a5f576040517f08c379a0000000000000000000000000000000000000000000000000000000008152600401610a5690611280565b60405180910390fd5b610a6c848484840361081c565b5b50505050565b600073ffffffffffffffffffffffffffffffffffffffff168373ffffffffffffffffffffffffffffffffffffffff161415610ae3576040517f08c379a0000000000000000000000000000000000000000000000000000000008152600401610ada906112e0565b60405180910390fd5b600073ffffffffffffffffffffffffffffffffffffffff168273ffffffffffffffffffffffffffffffffffffffff161415610b53576040517f08c379a0000000000000000000000000000000000000000000000000000000008152600401610b4a90611220565b60405180910390fd5b610b5e838383610ecb565b60008060008573ffffffffffffffffffffffffffffffffffffffff1673ffffffffffffffffffffffffffffffffffffffff16815260200190815260200160002054905081811015610be4576040517f08c379a0000000000000000000000000000000000000000000000000000000008152600401610bdb906112a0565b60405180910390fd5b8181036000808673ffffffffffffffffffffffffffffffffffffffff1673ffffffffffffffffffffffffffffffffffffffff16815260200190815260200160002081905550816000808573ffffffffffffffffffffffffffffffffffffffff1673ffffffffffffffffffffffffffffffffffffffff1681526020019081526020016000206000828254610c779190611392565b925050819055508273ffffffffffffffffffffffffffffffffffffffff168473ffffffffffffffffffffffffffffffffffffffff167fddf252ad1be2c89b69c2b068fc378daa952ba7f163c4a11628f55a4df523b3ef84604051610cdb9190611340565b60405180910390a3610cee848484610ed0565b50505050565b600073ffffffffffffffffffffffffffffffffffffffff168273ffffffffffffffffffffffffffffffffffffffff161415610d64576040517f08c379a0000000000000000000000000000000000000000000000000000000008152600401610d5b906112c0565b60405180910390fd5b610d7082600083610ecb565b60008060008473ffffffffffffffffffffffffffffffffffffffff1673ffffffffffffffffffffffffffffffffffffffff16815260200190815260200160002054905081811015610df6576040517f08c379a0000000000000000000000000000000000000000000000000000000008152600401610ded90611240565b60405180910390fd5b8181036000808573ffffffffffffffffffffffffffffffffffffffff1673ffffffffffffffffffffffffffffffffffffffff168152602001908152602001600020819055508160026000828254610e4d91906113e8565b92505081905550600073ffffffffffffffffffffffffffffffffffffffff168373ffffffffffffffffffffffffffffffffffffffff167fddf252ad1be2c89b69c2b068fc378daa952ba7f163c4a11628f55a4df523b3ef84604051610eb29190611340565b60405180910390a3610ec683600084610ed0565b505050565b505050565b505050565b600081359050610ee4816117e6565b92915050565b600081359050610ef9816117fd565b92915050565b600060208284031215610f1157600080fd5b6000610f1f84828501610ed5565b91505092915050565b60008060408385031215610f3b57600080fd5b6000610f4985828601610ed5565b9250506020610f5a85828601610ed5565b9150509250929050565b600080600060608486031215610f7957600080fd5b6000610f8786828701610ed5565b9350506020610f9886828701610ed5565b9250506040610fa986828701610eea565b9150509250925092565b60008060408385031215610fc657600080fd5b6000610fd485828601610ed5565b9250506020610fe585828601610eea565b9150509250929050565b60006020828403121561100157600080fd5b600061100f84828501610eea565b91505092915050565b6110218161141c565b82525050565b6110308161142e565b82525050565b600061104182611376565b61104b8185611381565b935061105b818560208601611471565b61106481611534565b840191505092915050565b600061107c602383611381565b915061108782611545565b604082019050919050565b600061109f602283611381565b91506110aa82611594565b604082019050919050565b60006110c2602283611381565b91506110cd826115e3565b604082019050919050565b60006110e5601d83611381565b91506110f082611632565b602082019050919050565b6000611108602683611381565b91506111138261165b565b604082019050919050565b600061112b602183611381565b9150611136826116aa565b604082019050919050565b600061114e602583611381565b9150611159826116f9565b604082019050919050565b6000611171602483611381565b915061117c82611748565b604082019050919050565b6000611194602583611381565b915061119f82611797565b604082019050919050565b6111b38161145a565b82525050565b6111c281611464565b82525050565b60006020820190506111dd6000830184611018565b92915050565b60006020820190506111f86000830184611027565b92915050565b600060208201905081810360008301526112188184611036565b905092915050565b600060208201905081810360008301526112398161106f565b9050919050565b6000602082019050818103600083015261125981611092565b9050919050565b60006020820190508181036000830152611279816110b5565b9050919050565b60006020820190508181036000830152611299816110d8565b9050919050565b600060208201905081810360008301526112b9816110fb565b9050919050565b600060208201905081810360008301526112d98161111e565b9050919050565b600060208201905081810360008301526112f981611141565b9050919050565b6000602082019050818103600083015261131981611164565b9050919050565b6000602082019050818103600083015261133981611187565b9050919050565b600060208201905061135560008301846111aa565b92915050565b600060208201905061137060008301846111b9565b92915050565b600081519050919050565b600082825260208201905092915050565b600061139d8261145a565b91506113a88361145a565b9250827fffffffffffffffffffffffffffffffffffffffffffffffffffffffffffffffff038211156113dd576113dc6114d6565b5b828201905092915050565b60006113f38261145a565b91506113fe8361145a565b925082821015611411576114106114d6565b5b828203905092915050565b60006114278261143a565b9050919050565b60008115159050919050565b600073ffffffffffffffffffffffffffffffffffffffff82169050919050565b6000819050919050565b600060ff82169050919050565b60005b8381101561148f578082015181840152602081019050611474565b8381111561149e576000848401525b50505050565b600060028204905060018216806114bc57607f821691505b602082108114156114d0576114cf611505565b5b50919050565b7f4e487b7100000000000000000000000000000000000000000000000000000000600052601160045260246000fd5b7f4e487b7100000000000000000000000000000000000000000000000000000000600052602260045260246000fd5b6000601f19601f8301169050919050565b7f45524332303a207472616e7366657220746f20746865207a65726f206164647260008201527f6573730000000000000000000000000000000000000000000000000000000000602082015250565b7f45524332303a206275726e20616d6f756e7420657863656564732062616c616e60008201527f6365000000000000000000000000000000000000000000000000000000000000602082015250565b7f45524332303a20617070726f766520746f20746865207a65726f20616464726560008201527f7373000000000000000000000000000000000000000000000000000000000000602082015250565b7f45524332303a20696e73756666696369656e7420616c6c6f77616e6365000000600082015250565b7f45524332303a207472616e7366657220616d6f756e742065786365656473206260008201527f616c616e63650000000000000000000000000000000000000000000000000000602082015250565b7f45524332303a206275726e2066726f6d20746865207a65726f2061646472657360008201527f7300000000000000000000000000000000000000000000000000000000000000602082015250565b7f45524332303a207472616e736665722066726f6d20746865207a65726f20616460008201527f6472657373000000000000000000000000000000000000000000000000000000602082015250565b7f45524332303a20617070726f76652066726f6d20746865207a65726f2061646460008201527f7265737300000000000000000000000000000000000000000000000000000000602082015250565b7f45524332303a2064656372656173656420616c6c6f77616e63652062656c6f7760008201527f207a65726f000000000000000000000000000000000000000000000000000000602082015250565b6117ef8161141c565b81146117fa57600080fd5b50565b6118068161145a565b811461181157600080fd5b5056fea264697066735822122066341cc2b8b5655f84d3870eeac4e84fc2d9e2bf7897c55b7718fed6baa6c11964736f6c63430008040033",
  "linkReferences": {},
  "deployedLinkReferences": {}
}